:030000000200DD1E
:0C00DD00787FE4F6D8FD75810C0200036A
:10008C00E50A7021750A0112000E8F0BE509650B4C
:10009C00FF550BF508E50BF45FF50C850B09E5082E
:0600AC00B40102B2902233
:1000CB005389F0758A20758CD1C28DD28CD2A9D26E
:0200DB00AF2252
:03000B000200B23E
:1000B200C0E0C0D0758A18758CFC050AE50AB40A3E
:0900C20003750A00D0D0D0E03231
:080003001200CB12008C80FBFF
:10000E00E4FF75B0FEE5B020E4010FE5B020E50297
:10001E007F02E5B020E6027F03E5B020E7027F0411
:10002E0075B0FDE5B020E4027F05E5B020E5027F66
:10003E0006E5B020E6027F07E5B020E7027F0875EF
:10004E00B0FBE5B020E4027F09E5B020E5027F0AAF
:10005E00E5B020E6027F0BE5B020E7027F0C75B01D
:10006E00F7E5B020E4027F0DE5B020E5027F0EE556
:0D007E00B020E6027F0FE5B020E7027F1002
:01008B002252
:00000001FF
