:03000000020003F8
:0C000300787FE4F6D8FD75811502004AF4
:1000A3000E08FEFDFBF7EFDFBF7FBFDFEFF7FBFDC2
:0F00B400E4FF74082FF8E6F5900FBF0EF580F10A
:10008F00EF4E600F7D027CEFDCFEDDFCEF1F70F0AA
:03009F001E80EDD3
:0100A200223B
:10000F000200B4E493A3F8E493A34003F68001F253
:10001F0008DFF48029E493A3F85407240CC8C333F2
:10002F00C4540F4420C8834004F456800146F6DFC1
:10003F00E4800B01020408102040809000A3E47EAE
:10004F00019360BCA3FF543F30E509541FFEE493B6
:10005F00A360010ECF54C025E060A840B8E493A37D
:10006F00FAE493A3F8E493A3C8C582C8CAC583CAA8
:10007F00F0A3C8C582C8CAC583CADFE9DEE780BE60
:0100B300004C
:00000001FF
