:0300000002009368
:0C009300787FE4F6D8FD7581340200DAB5
:1003D1001203E47BFF7A007903752A0F7D30120244
:0303E100B180F0F8
:100003000000000000000000FF080808FF000E15B4
:10001300151508007E0102007E0102000E11110E6B
:10002300007D000000000000000000000000000050
:100033000100010001003FF82108210821083FF8D1
:100043002108210821083FF8210A0102010200FECC
:1000530000007FF800100020004001800100FFFE37
:100063000100010001000100010001000500020080
:10007300000000000000000000000000000000007D
:10008300000000000000000000000000000000006D
:1003AF00080C0C1E3E7C7C3E1E0C08143C4295A192
:1003BF00A195423C011C00010B0002080000010A3C
:0103CF00002D
:0703E400C297C2A1C2A222D0
:02033200AD0715
:10033400E4FC7E007480A804088006CEA2E713CEF5
:1003440013D8F8FFEDFBEF5B6003D38001C392A0E9
:08035400D2A1C2A10CBC08DA21
:01035C00227E
:10035D00A8077480088002C313D8FCFAEDF4FF12CD
:10036D000332AF02120332D2A2C2A2E4FF12033251
:09037D00E4FF120332D2A2C2A275
:010386002254
:060387008B2D8A2E892F48
:10038D00E4F530AB2DAA2EA92F853082758300128E
:10039D00022FFDAF3012035D0530E530C3940840E8
:0103AD00E26D
:0103AE00222C
:0802B1008B268A2789288D297C
:1002B900E4F52BC37407952BFFE49400FEE51C2F8E
:1002C900F582E43EF583AB26AA27A92812022FFD61
:1002D900E4F52CFC7E007401A804088005C333CE24
:1002E90033CED8F9FFEDFBEF5B600DA804748008ED
:1002F9008002C313D8FC422C0CBC08D8AD2CAF2B00
:1003090012035D052BE52BC3940840A7050BE50BEC
:10031900D3952A4013E4F50B051CE52924F8FFE5DC
:080329001CD39F4003E4F51C06
:0103310022A9
:04011F008D318B3261
:100123007E007401A807088005C333CE33CED8F907
:10013300F4F534EEF4F533E4FAF9FD7E007401A826
:1001430005088005C333CE33CED8F9FFE531F582F8
:10015300EF5582600DA8057480088002C313D8FC94
:1001630042027E007401A805088005C333CE33CE56
:10017300D8F9FFE532F582EF5582600DA80574804A
:10018300088002C313D8FC42010DBD08AEE533FF5E
:10019300120332AF34120332AF01120332AF021231
:0601A3000332D2A2C2A249
:0101A9002233
:0A01AA008B1D8A1E891F8C208D21F9
:1001B400E4F5237E00E5092523FBEE3508FAE52066
:1001C400C313FCE52113FDAF03AE0212025C8C24C1
:1001D4008D25E52525E0FFE52433FEAB1DAA1EA9E8
:1001E4001F8F82F58312022FFD8F828E83A312024A
:1001F4002FFBAF2312011F0523E523C3941040B343
:10020400050AE50AD395224021E4F50A0509E50922
:1002140070020508E52013FEE52113FFC3E5099FDD
:0A022400E5089E4005E4F508F50921
:01022E0022AD
:10009F000203D1E493A3F8E493A34003F68001F2A3
:1000AF0008DFF48029E493A3F85407240CC8C33362
:1000BF00C4540F4420C8834004F456800146F6DF31
:1000CF00E4800B01020408102040809003AFE47E0F
:1000DF00019360BCA3FF543F30E509541FFEE49326
:1000EF00A360010ECF54C025E060A840B8E493A3ED
:1000FF00FAE493A3F8E493A3C8C582C8CAC583CA18
:10010F00F0A3C8C582C8CAC583CADFE9DEE780BECF
:0103D000002C
:10022F00BB010CE58229F582E5833AF583E0225084
:10023F0006E92582F8E622BBFE06E92582F8E222CE
:0D024F00E58229F582E5833AF583E49322E8
:10025C00BC000BBE0029EF8DF084FFADF022E4CC86
:10026C00F875F008EF2FFFEE33FEEC33FCEE9DEC4F
:10027C00984005FCEE9DFE0FD5F0E9E4CEFD22ED95
:10028C00F8F5F0EE8420D21CFEADF075F008EF2FDF
:10029C00FFED33FD4007985006D5F0F222C398FDD0
:0502AC000FD5F0EA226D
:00000001FF
