:0300000002000EED
:0C000E00787FE4F6D8FD758132020055C1
:10017D0008290102030405060708082100000000F4
:04018D00000000006E
:0101E80022F4
:1001D3005389F0438901758A18758CFCC28DD28CC2
:0501E300D2A9D2AF22F9
:03000B00020118D7
:10011800C0E0C0F0C083C082C0D075D000C000C0AD
:1001280001C002C003C004C005C006C007758A1814
:10013800758CFC0531E531B4C8037531000532E52D
:1001480032B4080375320074292532F8E6FD7421AB
:100158002532F8E6FBAF321201AFD007D006D00542
:10016800D004D003D002D001D000D0D0D082D08328
:05017800D0F0D0E032E0
:080003001201D31201E880FB99
:1001910011083F065B4F666D7D077F6F777C395E87
:0D01A1007971000819FEFDFBF7EFDFBF7F4D
:1001AF00E4F580D2A6C2A674192FF8E6F580D2A77F
:1001BF00C2A774082DF8E6F580EB6003438080D268
:0401CF00A6C2A622FC
:10009A00E4FF75B0FEE5B020E4010FE5B020E5020B
:1000AA007F02E5B020E6027F03E5B020E7027F0485
:1000BA0075B0FDE5B020E4027F05E5B020E5027FDA
:1000CA0006E5B020E6027F07E5B020E7027F087563
:1000DA00B0FBE5B020E4027F09E5B020E5027F0A23
:1000EA00E5B020E6027F0BE5B020E7027F0C75B091
:1000FA00F7E5B020E4027F0DE5B020E5027F0EE5CA
:0D010A00B020E6027F0FE5B020E7027F1075
:0101170022C5
:10001A00020003E493A3F8E493A34003F68001F2F9
:10002A0008DFF48029E493A3F85407240CC8C333E7
:10003A00C4540F4420C8834004F456800146F6DFB6
:10004A00E4800B010204081020408090017DE47EC8
:10005A00019360BCA3FF543F30E509541FFEE493AB
:10006A00A360010ECF54C025E060A840B8E493A372
:10007A00FAE493A3F8E493A3C8C582C8CAC583CA9D
:10008A00F0A3C8C582C8CAC583CADFE9DEE780BE55
:0101AE000050
:00000001FF
