:0300000002000EED
:0C000E00787FE4F6D8FD758136020055BD
:1001B600082D101010101010101008250000000057
:0901C6000000000003221359504F
:10017900E5357038753501FB7A007922120255E5AB
:1001890022C4540FF52DE522540FF52E752F11E5D4
:1001990023C4540FF530E523540FF531753211E5B9
:0D01A90024C4540FF533E524540FF534221F
:1002C3005389F0438901758A18758CFCC28DD28CD1
:0502D300D2A9D2AF2208
:03000B00020114DB
:10011400C0E0C0F0C083C082C0D075D000C000C0B1
:1001240001C002C003C004C005C006C007758A1818
:10013400758CFC0535E535B4C8037535000536E521
:1001440036B40803753600742D2536F8E6FD74259B
:100154002536F8E6FBAF361201EED007D006D005FF
:10016400D004D003D002D001D000D0D0D082D0832C
:05017400D0F0D0E032E4
:1002D8001202C37B007A007922120234120179805B
:0102E800FB1A
:0B02E900D2A0D2A100C2A000C2A1223E
:0902F400C2A0D2A100D2A0002298
:10021200E4FEEFC4131313540124FF92A0EF25E070
:10022200FFD2A100C2A10EBE08E8D2A0D2A100C294
:01023200A12A
:0102330022A8
:10029300E4FFD2A0FED2A100EF25E0FF30A003438C
:0802A3000701C2A10EBE08ED27
:0102AB002230
:1002AC00AC071202E97FD0120212AF04120212AF95
:0702BC00051202120202F418
:02027600AD07D2
:100278001202E97FD0120212AF051202121202E92D
:0B0288007FD11202121202930202F456
:1002340012009AFD7F021202AC9000011200B3FD7D
:100244007F011202AC9000021200B3FDE4FF02022F
:01025400ACFD
:100255007F02120276EF1200E07F01120276900013
:1002650001EF1200F2E4FF120276900002EF0200A5
:01027500F296
:1001CF0012083F065B4F666D7D077F6F777C395E48
:0E01DF0079710040081AFEFDFBF7EFDFBF7FCD
:1001EE00E4F580D2A6C2A6741A2FF8E6F580D2A73F
:1001FE00C2A774082DF8E6F580EB6003438080D229
:04020E00A6C2A622BC
:10001A000202D8E493A3F8E493A34003F68001F222
:10002A0008DFF48029E493A3F85407240CC8C333E7
:10003A00C4540F4420C8834004F456800146F6DFB6
:10004A00E4800B01020408102040809001B6E47E8F
:10005A00019360BCA3FF543F30E509541FFEE493AB
:10006A00A360010ECF54C025E060A840B8E493A372
:10007A00FAE493A3F8E493A3C8C582C8CAC583CA9D
:10008A00F0A3C8C582C8CAC583CADFE9DEE780BE55
:0101ED000011
:10009A00BB010689828A83E0225002E722BBFE0264
:0900AA00E32289828A83E4932297
:1000B300BB010CE58229F582E5833AF583E0225002
:1000C30006E92582F8E622BBFE06E92582F8E2224C
:0D00D300E58229F582E5833AF583E4932266
:1000E000BB010689828A83F0225002F722BBFE01FF
:0200F000F322F9
:1000F200F8BB010DE58229F582E5833AF583E8F044
:10010200225006E92582C8F622BBFE05E92582C8EF
:02011200F222D7
:00000001FF
