:03000000020003F8
:0C000300787FE4F6D8FD75811502004AF4
:1000BB000E08FEFDFBF7EFDFBF7FBFDFEFF7FBFDAA
:10008F00EF1FAA0670011E4A600BE4FDEDC39478C2
:05009F0050EE0D80F79A
:0100A4002239
:1000A500E4FC74082CF8E6F5907FF47E0112008FCD
:0600B5000CBC0EEE80EA17
:10000F000200A5E493A3F8E493A34003F68001F262
:10001F0008DFF48029E493A3F85407240CC8C333F2
:10002F00C4540F4420C8834004F456800146F6DFC1
:10003F00E4800B01020408102040809000BBE47E96
:10004F00019360BCA3FF543F30E509541FFEE493B6
:10005F00A360010ECF54C025E060A840B8E493A37D
:10006F00FAE493A3F8E493A3C8C582C8CAC583CAA8
:10007F00F0A3C8C582C8CAC583CADFE9DEE780BE60
:0100CB000034
:00000001FF
