:0300000002009764
:0C009700787FE4F6D8FD75813D0200DEA4
:0D036A0048656C6C6F20576F726C64210049
:100349001203357BFF7A03796A7D017F011202A3CB
:0203590080FE24
:10012300E4FF75B0FEE5B020E4010FE5B020E50281
:100133007F02E5B020E6027F03E5B020E7027F04FB
:1001430075B0FDE5B020E4027F05E5B020E5027F50
:1001530006E5B020E6027F07E5B020E7027F0875D9
:10016300B0FBE5B020E4027F09E5B020E5027F0A99
:10017300E5B020E6027F0BE5B020E7027F0C75B007
:10018300F7E5B020E4027F0DE5B020E5027F0EE540
:0D019300B020E6027F0FE5B020E7027F10EC
:0101A000223C
:06035B00C2A58F80D2A6AE
:080361007F027EEFDEFEDFFCEF
:010369002271
:0A037700C2A212035BC2A6020361DA
:1002C600CFCDCFCECCCE1200427C007D0A120042AA
:0402D600ED2430FFE4
:0A02DA00D2A212035BC2A602036168
:10031F00AE07BE0104ED148006BE0209ED243F4472
:06032F0080FF120377229B
:100335007F381203777F0C1203777F061203777FCE
:040345000102037737
:0A038100AC0312031FAF040202DAFE
:0602A3008B3B8A3C893D03
:1002A90012031FE4FDAB3BAA3CA93D8D8275830077
:0C02B900120003FF60061202DA0D80E95B
:0102C5002216
:0C024C007F0AEA24FFFDE434FFFC7E0082
:080258008E378F388C398D3A86
:100260007F017E00E4FBEBC3953AE5396480F874C6
:0E0270008098500AAC37AD381200300B80E891
:01027E00225D
:040302008A2A8B2B8D
:1003060012031FAA2CEAD39400400D12024CAC2A09
:08031600AD2B1202C61A80EDA6
:01031E0022BC
:1001A10012031FC3EA64809480400B7F2B1202DA92
:1001B1008A268B27800E7F2D1202DAC3E49BF52756
:1001C100E49AF526AA25EAD39400400D12024CAC1C
:0901D10026AD271202C61A80EDCA
:0101DA002202
:0401DB008A2F8B30AC
:1001DF0012031FAA31EAD3940040297F1012024E56
:1001EF00AC2FAD30CFCDCFCECCCE120042EF540FCF
:1001FF00FEC3940AEE5004243080022437FF12020B
:04020F00DA1A80D1A6
:0102130022C8
:040214008A348B3568
:1002180012031FAA36EAD394004028EA24FFFDE41B
:1002280034FFFC7F027E00120258AC34AD35CFCDCE
:10023800CFCECCCE120042EF54012430FF1202DAA6
:030248001A80D247
:01024B002290
:1002E40011083F065B4F666D7D077F6F777C395E33
:0D02F4007971000819FEFDFBF7EFDFBF7FF9
:10027F00E4F580D2A6C2A674192FF8E6F580D2A7AE
:10028F00C2A774082DF8E6F580EB6003438080D297
:04029F00A6C2A6222B
:1000A300020349E493A3F8E493A34003F68001F227
:1000B30008DFF48029E493A3F85407240CC8C3335E
:1000C300C4540F4420C8834004F456800146F6DF2D
:1000D300E4800B01020408102040809002E4E47ED7
:1000E300019360BCA3FF543F30E509541FFEE49322
:1000F300A360010ECF54C025E060A840B8E493A3E9
:10010300FAE493A3F8E493A3C8C582C8CAC583CA13
:10011300F0A3C8C582C8CAC583CADFE9DEE780BECB
:0103010000FB
:10000300BB010CE58229F582E5833AF583E02250B2
:1000130006E92582F8E622BBFE06E92582F8E222FC
:0D002300E58229F582E5833AF583E4932216
:10003000EF8DF0A4A8F0CF8CF0A428CE8DF0A42EE4
:02004000FE229E
:10004200BC000BBE0029EF8DF084FFADF022E4CCA2
:10005200F875F008EF2FFFEE33FEEC33FCEE9DEC6B
:10006200984005FCEE9DFE0FD5F0E9E4CEFD22EDB1
:10007200F8F5F0EE8420D21CFEADF075F008EF2FFB
:10008200FFED33FD4007985006D5F0F222C398FDEC
:050092000FD5F0EA2289
:00000001FF
