:03000000020410E7
:0C041000787FE4F6D8FD758140020457A7
:1005650048656C6C6F20576F726C64210D0A00E44E
:10057500BDA0E5A5BDEFBC8CE4B896E7958CEFBCB6
:04058500810D0A00DA
:0A05FD00023D000002220000C109C7
:10051A00E53B7021753B0112049C8F3CE53A653C32
:10052A00FF553CF539E53CF45FF53F853C3AE53942
:06053A00B40102B29022A0
:08000300E53870037538012295
:10000E005389F0438901758A18758CFCC28DD28C88
:05001E00D2A9D2AF22BF
:03000B0002058962
:10058900C0E0C0D0758A18758CFC053BE53BB40A00
:1005990003753B000538E538B4C803753800D0D079
:0305A900D0E0326D
:030023000205AC27
:1005AC00C0E0C0D075D000C00030980B742E254030
:0E05BC00F8A6990540C298D000D0D0D0E03209
:1005CA0012000E1205E77BFF7A0579651205407B5A
:0D05DA00FF7A05797412008812000380FB7F
:10049C00E4FF75B0FEE5B020E4010FE5B020E50205
:1004AC007F02E5B020E6027F03E5B020E7027F047F
:1004BC0075B0FDE5B020E4027F05E5B020E5027FD4
:1004CC0006E5B020E6027F07E5B020E7027F08755D
:1004DC00B0FBE5B020E4027F09E5B020E5027F0A1D
:1004EC00E5B020E6027F0BE5B020E7027F0C75B08B
:1004FC00F7E5B020E4027F0DE5B020E5027F0EE5C4
:0D050C00B020E6027F0FE5B020E7027F106F
:0105190022BF
:1005E70075985053890F438920758DFD758BFDD202
:0605F7008ED2ACD2AF224F
:080608008F993099FDC299227F
:100540008B088A09890AAB08AA09A90A12038260E2
:1005500013050AE50A7002050914F9120382FF1255
:05056000060880E22204
:05061000AE0702060820
:10041C000205CAE493A3F8E493A34003F68001F227
:10042C0008DFF48029E493A3F85407240CC8C333E1
:10043C00C4540F4420C8834004F456800146F6DFB0
:10044C00E4800B01020408102040809005FDE47E3E
:10045C00019360BCA3FF543F30E509541FFEE493A5
:10046C00A360010ECF54C025E060A840B8E493A36C
:10047C00FAE493A3F8E493A3C8C582C8CAC583CA97
:10048C00F0A3C8C582C8CAC583CADFE9DEE780BE4F
:0106070000F2
:10038200BB010689828A83E0225002E722BBFE0279
:09039200E32289828A83E49322AC
:10002600E517240BF8E60517227808300702780B47
:10003600E475F0011203DA0203822000EB7F2ED270
:10004600008018EF540F2490D43440D4FF30040BB2
:10005600EF24BFB41A0050032461FFE518600215AF
:1000660018051BE51B7002051A30070D7808E475A4
:10007600F0011203DAEF0203C80206107403D20776
:100086008003E4C207F5178B088A09890AE4F51884
:10009600F51AF51BE51860077F2012006180F575DB
:1000A60019FFC201C200C202C203C205C206C208CB
:1000B60012002FFF700D3007057F00120072AF1B74
:1000C600AE1A22B4255FC2D5C20412002FFF24D077
:1000D600B40A00501A75F00A781830D50508B6FF2C
:1000E6000106C6A426F620D5047002D20380D924C0
:1000F600CFB41A00EF5004C2E5D204020272D20154
:1001060080C6D20080C0D20280BCD2D580BAD205C9
:1001160080B47F201200612002077401B5180040E8
:10012600F1120026FF12006102009AD208D2068060
:1001360095120026FB120026FA120026F94A4B7089
:100146000679437A037BFF20022EE518602A7E009B
:100156008E8275830012039B60060EEE651970F0A1
:10016600C2D5EBC0E0EAC0E0E9C0E0EE1202B9D0C9
:10017600E0F9D0E0FAD0E0FB120382FF60AAEBC000
:10018600E0EAC0E0E9C0E0120061D0E02401F9D065
:10019600E03400FAD0E0FBE5190460DCD519D9801B
:1001A600877BFF7A0279B5D202809C79108002792A
:1001B60008C206C2088008D2D5790A8004790AC224
:1001C600D5E519047002F519E4FAFDFEFF120026C2
:1001D600FC7B08200113120026FD7B1030000A125A
:1001E6000026FE120026FF7B20EC3382D592D550E6
:1001F60013C3E43000069FFFE49EFEE42001039D46
:10020600FDE49CFCE4CBF8C201EC700CCFCECDCC67
:10021600E824F8F870F38017C3EF33FFEE33FEEDF2
:1002260033FDEC33FCEB33FB994002FB0FD8E9EBD3
:10023600300105F8D0E0C448B201C0E00AEC4D4EEA
:100246004F78207B0070C2EAB5190040BCC0E012AE
:1002560002BBD0F0D0E0200104C4C0E0C4B201C0AB
:10026600F012004AD0F0D5F0EB02009A1203EA0130
:10027600375301B15801084C01044201B54F01BD85
:0F0286004401BD49011D4301C35501A74601A70E
:100295004501A747036350010C2D01102E01332B97
:1002A500011423013120034C2A00CC480000012B06
:1002B5003F3F3F00790AA2D5200314300509B91044
:1002C500020404B9080104A2D52006025001042045
:1002D50002689202B518005034C0E07F203003193F
:1002E5007F30A20272067205500F120312C202C2BB
:1002F50006C205C2087F30800F300503E9C0E01251
:100305000061300503D0E0F9D0E0B518CC30051711
:100315007F30B9100C1200617F583004077F788058
:1003250003B908031200613002057F2D0200617FC9
:10033500202008F87F2B2006F322920280CF286E1A
:10034500756C6C2900D2011200263001F8C20178C3
:100355001830D50108F60200CC2D5043495812003B
:10036500262403B405004001E490035E9312005275
:0D037500743A120052D2037518040201B14F
:10039B00BB010CE58229F582E5833AF583E0225017
:1003AB0006E92582F8E622BBFE06E92582F8E22261
:0D03BB00E58229F582E5833AF583E493227B
:1003C800BB010689828A83F0225002F722BBFE0114
:0203D800F3220E
:1003DA00FAE6FB0808E6F925F0F618E6CA3AF62224
:1003EA00D083D082F8E4937012740193700DA3A3A2
:1003FA0093F8740193F5828883E4737402936860B6
:06040A00EFA3A3A380DFB5
:00000001FF
