:030000000201E119
:0C01E100787FE4F6D8FD75813902022811
:10035B0008101010101010101010080800000000EA
:04036B00000000008E
:1002D200E5187044F51812031B8F1D8E1C8D1B8CA4
:1002E2001A120152EF75F00A8475F00A8485F01033
:1002F200EF75F00A8485F011750901E4FFFE7D2097
:100302007C41AB1DAA1CA91BA81A12000E12015295
:09031200EF75F00A8485F0122257
:100420005389F0438901758A18758CFCC28DD28C72
:05043000D2A9D2AF22A9
:03000B0002026D81
:10026D00C0E0C0F0C083C082C0D075D000C000C057
:10027D0001C002C003C004C005C006C007758A18BE
:10028D00758CFC0518E518B4C8037518000519E53B
:10029D0019B4080375190074102519F8E6FD7408D2
:1002AD002519F8E6FBAF191203BAD007D006D00511
:1002BD00D004D003D002D001D000D0D0D082D083D2
:0502CD00D0F0D0E0328A
:080003001204201202D280FB5E
:07043500AE071FEE70FA2272
:1003DE00C2AFD2EE00C2EE7F4B120435D2EE7F04D6
:1003EE00120435A2EE92007F14120435D2EED2AF73
:0203FE00A2005B
:0104000022D9
:02040100AD0745
:10040300E4FBC2AFC2EE00ED1392EE7F0A12043595
:0C041300D2EED2AFEDC313FD0BBB08E628
:01041F0022BA
:10038D00E4FDFCC2AFC2EE00D2EE00A2EEE433FB00
:10039D007F0A120435D2EED2AFEBC433333354801F
:0C03AD00FFEDC3134FFD0CBC08D9AF05D9
:0103B9002221
:10031B001203DE5006E4FFFEFDFC227FCC1204012B
:10032B007F441204011203DE7FCC1204017FBE1244
:10033B00040112038DAA0712038DEFFEEAFFFDAC39
:0F034B0006E4120119E4FBFA7980783D12000EE6
:01035A002280
:10036F0011213F065B4F666D7D077F6F777C395E8E
:0D037F007971000832FEFDFBF7EFDFBF7F54
:1003BA00E4F580D2A6C2A674322FF8E6F580D2A759
:1003CA00C2A774212DF8E6F580EB6003438080D242
:0403DA00A6C2A622EF
:10000E00EC4D6011E8497017ED33EC3304600DE4EC
:10001E00FCFFFEFD22E933E8330470F80201BE1244
:10002E00018958046009E4CC248150062850090245
:10003E0001C82840030201C5C0E0EB4A7044B980F4
:10004E0006D0E0FB0201B4EF4E701CBD8008EBFF42
:10005E00EAFEE9FD80EBE98DF0A4FEE5F00200F783
:10006E00E9CDF9EAFEEBFFEF89F0A4FCE5F0CE89CD
:10007E00F0A42EFFE435F0CD89F0A42DFEE435F08A
:10008E008067EF4E7005BD80D780C3EF8BF0A4ACB8
:10009E00F0EE8BF0A42CFCE435F0F8EF8AF0A42CF3
:1000AE00E5F038FCE433CB8DF0A42CFCE5F03BF806
:1000BE00EE8AF0A42CFCE5F038F8E433CF89F0A4F6
:1000CE002CFCE5F038CF3400CE89F0A42FFFE5F0FC
:1000DE003EFEE433C98DF0A42EFEE5F039CD8AF054
:1000EE00A42FFFE5F03EFEE43DFD33D0E0FB5007CC
:1000FE000BBB000F0201C8EC2CFCEF33FFEE33FEFE
:06010E00ED33FD0201A02B
:1001140075F020800E75F010800575F0087D007E66
:10012400007F003392D530D5031201D3EC33401055
:10013400EF33FFEE33FEED33FDEC33FCD5F0ED226F
:0E014400E5F0247EA2D513CC92E7CDCEFF22AB
:10015200EDD2E7CD33EC3392D524814006E4FFFEA5
:10016200FDFC22FCE4CFCECDCC24E0501174FF8004
:10017200EDC3CC13CCCD13CDCE13CECF13CF0470A1
:07018200F030D5DE0201D3CD
:10018900E9D2E7C933E833F892D5EDD2E7CD33ECBC
:0701990033FC5002B2D52235
:1001A000EC30E7100FBF000C0EBE00080DBD0004C0
:1001B0000BEB6014A2D5EB13FCED92E7FD2274FF6C
:1001C000FCFDFEFF22E480F8A2D574FF13FC7D80C5
:0301D000E480EFD9
:1001ED00020003E493A3F8E493A34003F68001F225
:1001FD0008DFF48029E493A3F85407240CC8C33313
:10020D00C4540F4420C8834004F456800146F6DFE1
:10021D00E4800B010204081020408090035BE47E13
:10022D00019360BCA3FF543F30E509541FFEE493D6
:10023D00A360010ECF54C025E060A840B8E493A39D
:10024D00FAE493A3F8E493A3C8C582C8CAC583CAC8
:10025D00F0A3C8C582C8CAC583CADFE9DEE780BE80
:01038C000070
:0E01D300C3E49FFFE49EFEE49DFDE49CFC223D
:00000001FF
